{
    "_format": "hh-sol-artifact-1",
    "contractName": "AccessControl",
    "sourceName": "contracts/AccessControl.sol",
    "abi": [
        {
            "anonymous": false,
            "inputs": [
                {
                    "indexed": false,
                    "internalType": "string",
                    "name": "datasetName",
                    "type": "string"
                },
                {
                    "indexed": false,
                    "internalType": "address",
                    "name": "owner",
                    "type": "address"
                }
            ],
            "name": "DatasetOwnerSet",
            "type": "event"
        },
        {
            "anonymous": false,
            "inputs": [
                {
                    "indexed": false,
                    "internalType": "string",
                    "name": "datasetName",
                    "type": "string"
                },
                {
                    "indexed": false,
                    "internalType": "address",
                    "name": "grantee",
                    "type": "address"
                }
            ],
            "name": "PermissionGranted",
            "type": "event"
        },
        {
            "inputs": [
                {
                    "internalType": "address",
                    "name": "user",
                    "type": "address"
                },
                {
                    "internalType": "string",
                    "name": "datasetName",
                    "type": "string"
                }
            ],
            "name": "checkAccess",
            "outputs": [
                {
                    "internalType": "bool",
                    "name": "",
                    "type": "bool"
                }
            ],
            "stateMutability": "view",
            "type": "function"
        },
        {
            "inputs": [
                {
                    "internalType": "string",
                    "name": "datasetName",
                    "type": "string"
                }
            ],
            "name": "getDatasetOwner",
            "outputs": [
                {
                    "internalType": "address",
                    "name": "",
                    "type": "address"
                }
            ],
            "stateMutability": "view",
            "type": "function"
        },
        {
            "inputs": [
                {
                    "internalType": "address",
                    "name": "user",
                    "type": "address"
                },
                {
                    "internalType": "string",
                    "name": "datasetName",
                    "type": "string"
                }
            ],
            "name": "grantPermission",
            "outputs": [],
            "stateMutability": "nonpayable",
            "type": "function"
        },
        {
            "inputs": [
                {
                    "internalType": "string",
                    "name": "datasetName",
                    "type": "string"
                },
                {
                    "internalType": "address",
                    "name": "owner",
                    "type": "address"
                }
            ],
            "name": "setDatasetOwner",
            "outputs": [],
            "stateMutability": "nonpayable",
            "type": "function"
        }
    ],
    "bytecode": "0x608060405234801561001057600080fd5b50610983806100206000396000f3fe608060405234801561001057600080fd5b506004361061004c5760003560e01c80635c06c90214610051578063a5657a9114610081578063bbd9a5fa146100b1578063d72cb129146100cd575b600080fd5b61006b600480360381019061006691906105b4565b6100e9565b604051610078919061063e565b60405180910390f35b61009b60048036038101906100969190610685565b610133565b6040516100a891906106fc565b60405180910390f35b6100cb60048036038101906100c69190610685565b6101a8565b005b6100e760048036038101906100e29190610717565b61030d565b005b600080826040516100fa91906107e4565b908152602001604051809103902060000160009054906101000a900473ffffffffffffffffffffffffffffffffffffffff169050919050565b6000808260405161014491906107e4565b908152602001604051809103902060010160008473ffffffffffffffffffffffffffffffffffffffff1673ffffffffffffffffffffffffffffffffffffffff16815260200190815260200160002060009054906101000a900460ff16905092915050565b806000816040516101b991906107e4565b908152602001604051809103902060000160009054906101000a900473ffffffffffffffffffffffffffffffffffffffff1673ffffffffffffffffffffffffffffffffffffffff163373ffffffffffffffffffffffffffffffffffffffff1614610258576040517f08c379a000000000000000000000000000000000000000000000000000000000815260040161024f90610858565b60405180910390fd5b600160008360405161026a91906107e4565b908152602001604051809103902060010160008573ffffffffffffffffffffffffffffffffffffffff1673ffffffffffffffffffffffffffffffffffffffff16815260200190815260200160002060006101000a81548160ff0219169083151502179055507f30f499dee5aca26bf88e6932509f2693b637e648ec36ac97034db8869f11863982846040516103009291906108b1565b60405180910390a1505050565b600073ffffffffffffffffffffffffffffffffffffffff1660008360405161033591906107e4565b908152602001604051809103902060000160009054906101000a900473ffffffffffffffffffffffffffffffffffffffff1673ffffffffffffffffffffffffffffffffffffffff16146103bd576040517f08c379a00000000000000000000000000000000000000000000000000000000081526004016103b49061092d565b60405180910390fd5b806000836040516103ce91906107e4565b908152602001604051809103902060000160006101000a81548173ffffffffffffffffffffffffffffffffffffffff021916908373ffffffffffffffffffffffffffffffffffffffff1602179055507f835931fd267799663d9a7d210ac940f765c375bd3a4fa5464b139c0ae2272c61828260405161044e9291906108b1565b60405180910390a15050565b6000604051905090565b600080fd5b600080fd5b600080fd5b600080fd5b6000601f19601f8301169050919050565b7f4e487b7100000000000000000000000000000000000000000000000000000000600052604160045260246000fd5b6104c182610478565b810181811067ffffffffffffffff821117156104e0576104df610489565b5b80604052505050565b60006104f361045a565b90506104ff82826104b8565b919050565b600067ffffffffffffffff82111561051f5761051e610489565b5b61052882610478565b9050602081019050919050565b82818337600083830152505050565b600061055761055284610504565b6104e9565b90508281526020810184848401111561057357610572610473565b5b61057e848285610535565b509392505050565b600082601f83011261059b5761059a61046e565b5b81356105ab848260208601610544565b91505092915050565b6000602082840312156105ca576105c9610464565b5b600082013567ffffffffffffffff8111156105e8576105e7610469565b5b6105f484828501610586565b91505092915050565b600073ffffffffffffffffffffffffffffffffffffffff82169050919050565b6000610628826105fd565b9050919050565b6106388161061d565b82525050565b6000602082019050610653600083018461062f565b92915050565b6106628161061d565b811461066d57600080fd5b50565b60008135905061067f81610659565b92915050565b6000806040838503121561069c5761069b610464565b5b60006106aa85828601610670565b925050602083013567ffffffffffffffff8111156106cb576106ca610469565b5b6106d785828601610586565b9150509250929050565b60008115159050919050565b6106f6816106e1565b82525050565b600060208201905061071160008301846106ed565b92915050565b6000806040838503121561072e5761072d610464565b5b600083013567ffffffffffffffff81111561074c5761074b610469565b5b61075885828601610586565b925050602061076985828601610670565b9150509250929050565b600081519050919050565b600081905092915050565b60005b838110156107a757808201518184015260208101905061078c565b60008484015250505050565b60006107be82610773565b6107c8818561077e565b93506107d8818560208601610789565b80840191505092915050565b60006107f082846107b3565b915081905092915050565b600082825260208201905092915050565b7f4e6f742064617461736574206f776e6572000000000000000000000000000000600082015250565b60006108426011836107fb565b915061084d8261080c565b602082019050919050565b6000602082019050818103600083015261087181610835565b9050919050565b600061088382610773565b61088d81856107fb565b935061089d818560208601610789565b6108a681610478565b840191505092915050565b600060408201905081810360008301526108cb8185610878565b90506108da602083018461062f565b9392505050565b7f4f776e657220616c726561647920736574000000000000000000000000000000600082015250565b60006109176011836107fb565b9150610922826108e1565b602082019050919050565b600060208201905081810360008301526109468161090a565b905091905056fea2646970667358221220ef65042483ffe251fc5e0ed041e5ffb7042a2a2e4a86b6ea7d77ae6fb0285fe864736f6c63430008140033",
    "linkReferences": {},
    "deployedLinkReferences": {}
}